:020000040800F2
:10000000C0180020A5220008AD220008AF22000879
:10001000B1220008B3220008B52200080000000049
:100020000000000000000000000000002D02000899
:10003000B922000800000000A5020008E102000843
:10004000BF220008BF220008BF220008BF2200080C
:10005000BF220008BF220008BF220008BF220008FC
:10006000BF220008BF220008BF220008BF220008EC
:10007000BF220008BF220008BF220008BF220008DC
:10008000BF220008BF220008BF220008BF220008CC
:10009000BF220008BF220008BF220008BF220008BC
:1000A000BF220008BF220008BF220008BF220008AC
:1000B000BF220008BF220008BF220008BF2200089C
:1000C000BF220008BF220008BF220008BF2200088C
:1000D000BF220008BF220008BF220008BF2200087C
:1000E000BF220008BF220008BF22000800F002F86B
:1000F00000F054F814A696E8000CB244B344DA4574
:1001000001D100F04BF8BAE80F000FA696E83000D6
:10011000A5EB040504EB0607AAEB0704A7F101070A
:100120004FEA15154FEA3414A4F10104AC4201D38F
:1001300000F034F813F0010F18BFFB1A43F001036D
:1001400000F001F8DBE71847404000006040000085
:10015000103A24BF78C878C1FAD8520724BF30C8F3
:1001600030C144BF04680C60704700007047000055
:100170000023002400250026103A28BF78C1FBD8B0
:10018000520728BF30C148BF0B6070471FB59DE8BC
:10019000030002F00FFA1FBD10B510BD02F073FA94
:1001A0001146FFF7F3FF0FB402F06EF80FBC00F03A
:1001B000A1F802F08DFA03B4FFF7EEFF03BC02F0E2
:1001C000BDFA000080F309887047EFF3098070479B
:1001D000684680F3098804480078C00714BF0220ED
:1001E000032080F314887047D93F0008DFF818C057
:1001F000EFF305831B0618BF6047EFF31483DB079B
:1002000008BF604700DF7047BB2B0008DFF818C04D
:10021000EFF305831B0618BF6047EFF31483DB077A
:1002200008BF604700DF7047552E0008EFF30980D4
:10023000816911F8021CF1B990E80F10E047EFF363
:10024000098C8CE80700144B93E8060091420FD00C
:1002500039B12CE9F00FC1F828C00CB403F09EF9B5
:100260000CBC1A60D2F828C0BCE8F00F8CF30988E7
:100270006FF0020E704710B5084A1268914209D813
:10028000074C54F8214090E80F10A047EFF3098C79
:100290008CE80F0010BD00000C000020CC270008E7
:1002A000CC27000803F04CF80C4B93E80600914271
:1002B00010D0EFF3098C2CE9F00FC1F828C00CB472
:1002C00003F06CF90CBC1A60D2F828C0BCE8F00F3F
:1002D0008CF309886FF0020E704700000C000020BC
:1002E00003F024FAE0E7000002F066FC03F01EFAD7
:1002F000DAE7000002F050FB41F21804C4F20204F5
:10030000206840F6004540F0010020600420C4F25F
:1003100001000168C4F2010541F00071016020682C
:1003200042F2084140F43F702060C4F20101012014
:1003300008600A684FF4704342F004020A60082221
:100340008A604FF6004144F23332CFF6FF71C4F2B7
:1003500034326A504FF60441CFF6FF714FF033321A
:100360006A5044F20B41C4F24441296040F6044112
:10037000C4F201014FF044320A608B60C1F80024DE
:100380004FF0FF32C1F808244FF60C41CFF6FF7151
:100390006A5840F2004622F400426A506168C4F292
:1003A000000641F0020161604FF480713184302118
:1003B000B183308040F23000C2F20000006840F2A9
:1003C0001C11C2F20001086001F070FB00203080B7
:1003D000606820F002006060286820F00F0028604C
:1003E000286840F00400286040F6B83002F0C8FAEF
:1003F0007EA001F0E1FD4FF4C87002F0C1FA01F0F7
:1004000033FE7DA001F0D8FD4FF4C87002F0B8FAB9
:1004100001F02AFE44F22214C0F60004204601F046
:10042000CBFD4FF4C87002F0ABFA01F01DFE44F2B0
:100430001615C0F60005284601F0BEFD4FF4C87041
:1004400002F09EFA01F010FE6EA001F0B5FD4FF42F
:10045000C87002F095FA01F007FE6DA001F0ACFD46
:100460004FF4C87002F08CFA01F0FEFD204601F056
:10047000A3FD4FF4C87002F083FA01F0F5FD2846A1
:1004800001F09AFD4FF4C87002F07AFA01F0ECFD29
:100490004FF47A7002F074FA60A001F08DFD40F61E
:1004A000B83002F06DFA01F0DFFD60A001F084FDCC
:1004B00040F6B83002F064FA01F0D6FD5FA001F01A
:1004C0007BFD40F6B83002F05BFA01F0CDFD60A094
:1004D00001F072FD40F6B83002F052FA01F0C4FDAE
:1004E0005FA001F069FD40F6B83002F049FA44F22D
:1004F0003800C0F60000002102F000FB40F20C11B1
:10050000C2F20001086044F24800C0F60000002179
:1005100002F0F4FA40F21011C2F20001086044F255
:100520005800C0F60000002102F0E8FA40F2141171
:10053000C2F20001086044F26800C0F60000002129
:1005400002F0DCFA40F21811C2F20001086044F235
:100550001800C0F60000002102F0D0FA40F20411A9
:10056000C2F20001086044F22800C0F60000002139
:1005700002F0C4FA40F20811C2F20001086044F22D
:100580000800C0F60000002102F0B8FA40F20011A5
:10059000C2F20001086043F6F870C0F600000021C6
:1005A00002F0ACFA40F2FC04C2F20004206043F610
:1005B000E470C0F6000002F04FFA40F23011C2F2CF
:1005C0000001086043F6E870C0F6000002F044FA4B
:1005D00041F2BC222168C2F20002106008460121EB
:1005E00002F074FA02F0EAF9FEE700BF68747320C3
:1005F0006D6F643A206F6B00616E6E206D6F643AB0
:10060000206F6B004854206C6F61643A206F6B0060
:100610006D732D733A206F6B000000005379737473
:10062000656D206C6F61642E2E2E0000456C742D5C
:100630004B65726E656C3A206F6B000057656C639A
:100640006F6D6520746F2045432D4F5300000000EF
:1006500056657273696F6E3A20302E3300000000C9
:100660002D2D2D2D2D45434F5330332D2D2D2D2D3B
:1006700000000000704700BF40F20040C4F20000DC
:100680000021018041F21C00C4F20200016821F047
:100690000201016040F60040C4F20100016821F04F
:1006A0000F010160016841F004010160704700BF63
:1006B00042F20840C4F201000921C162016841F020
:1006C0000101016050F8081C8907FBD5406C704798
:1006D00080B541F21800C4F2020001684FF0010C2D
:1006E00041F0010101600421C4F201010A684FF0E8
:1006F000443E42F000720A60016842F2084241F44E
:100700003F71C4F201020160C2F800C013684FF4E7
:10071000704143F0040313600823936040F60C0219
:1007200044F23333C4F20102C4F2343342F80C3CD5
:100730004FF0333342F8083C44F20B43C4F24443D5
:10074000C2F8F43340F60443C4F20103C3F800E0F6
:1007500099604FF0FF31C3F800E4C3F80814116842
:1007600021F400411160416841F00201416040F212
:100770000040C4F200004FF4807101843021818375
:10078000A0F800C040F23000C2F20000006840F261
:100790001C11C2F200010860BDE8804001F086B97A
:1007A00084B040F60C0540F2301640F21C17C4F23B
:1007B000010501ACC2F20006C2F200072046012189
:1007C0004FF0FF3201F042FD02F0BAF9012102F0D0
:1007D0007DF930684FF0FF3102F060F9286820F0B1
:1007E00001002860286840F002002860286820F096
:1007F00004002860286840F400402860286820F43D
:1008000080702860286840F040002860286820F048
:1008100020002860286840F400602860306802F0FA
:1008200031F9386802F0ACF830684FF0FF3102F06F
:1008300035F9286840F001002860286820F002009F
:100840002860286840F004002860286820F40040F0
:100850002860286840F480702860286820F04000F4
:100860002860286840F020002860286820F4006094
:100870002860306802F006F9386802F081F89DE7D8
:1008800084B040F60C0540F2301940F21C1AC4F254
:1008900001054FF0000B0DF104080127C2F2000919
:1008A0001BA4C2F2000A00BF404601214FF0FF32F4
:1008B00001F0CCFC02F044F9012102F007F95FFAE3
:1008C0008BF1D9F800008BEA51064FF0FF3102F0AE
:1008D000E5F8F0B2002100BF625C20FA01F3DB070B
:1008E00007FA02F201F101012B680CBF23EA0202B0
:1008F0001A4308292A60EFD1D9F8000002F0C2F8A3
:10090000DAF800000BF1010B02F03AF8CCE700BF77
:100910000001020F0806050B84B042F2084544F6B8
:10092000D35A40F2301443F6386B40F60C07C4F249
:1009300001050DF104084FF00909C1F2620AC2F283
:100940000004C0F6000BC4F2010700BF40460121BD
:100950004FF0FF3201F07AFC02F0F2F8012102F0D0
:10096000B5F8C5F82C90286840F00100286000BF59
:1009700055F8080C8007FBD5686C80FB0A0148110C
:1009800000EBD17620684FF0FF31082EA8BF082673
:1009900002F084F83BF816003860206802F072F824
:1009A000D4E700BF84B040F2004641F21C05C4F217
:1009B00000060020C4F202053080286840F6004797
:1009C00020F00200C4F201072860386842F20844AF
:1009D00020F00F003860386840F2301A4FF60C4BA8
:1009E000C4F2010440F00400C2F2000ACFF6FF7B1B
:1009F00038602DE0386843F64A6120F00F00386017
:100A00003868C0F6000140F00B003860286840F0FC
:100A10000200286040F66830C2F20000007800EB67
:100A2000C00001EB400030F8180041F20021400006
:100A3000C0F27A01B1FBF0F081B20138B08548080C
:100A400030874FF4807030843020B08301203080B4
:100A500001A801214FF0FF3201F0F8FB02F070F81D
:100A6000012102F033F80920E062206840F0010023
:100A7000206000BF54F8080C8007FBD5D4F84490E0
:100A800044F6D350C1F2620089FB0001481100EB2B
:100A9000D178DAF800004FF0FF31B8F1080FA8BFA5
:100AA0004FF0080801F0FAFF43F63860C0F6000086
:100AB00030F8180047F80B00DAF8000001F0E2FF08
:100AC000B9F5FA7F96DA00203080286820F002001D
:100AD0002860386820F00F003860386840F0040063
:100AE0003860B5E740F6004541F2BC2443F6B856FD
:100AF00040F2101B40F2141840F21819C4F201051C
:100B0000C2F20004C0F600060127C2F2000BC2F2D6
:100B10000008C2F2000906E041F2BC24C2F200045F
:100B2000206801F0AFFF20684FF0FF3101F0B6FF01
:100B300040F20C144FF0000AC2F2000409E040F643
:100B40006831C2F2000108700AF1010ABAF1090F16
:100B5000E2D056F83A0006EBCA018268097907FA32
:100B600001F11142F0D180680842EDD120680121E5
:100B700001F0A0FFDBF80000012101F09BFFD8F895
:100B80000000012101F096FFD9F80000012101F0D9
:100B900091FFBAF1080FD7D8DFE80AF00C612C4EAC
:100BA00005838E5A9500D9F80000012101F08EFFCF
:100BB0000020C4E740F20040C4F2000000210180A0
:100BC00041F21C01C4F20201086820F00200086032
:100BD0002868012120F00F002860286840F00400F8
:100BE0002860206801F072FF40F23810C2F2000065
:100BF0000770A9E740F20040C4F200000021018024
:100C000041F21C01C4F20201086820F002000860F1
:100C10002868012120F00F002860286840F00400B7
:100C20002860D8F8000001F051FF40F23810C2F2FD
:100C300000000321017087E7D9F80000012101F0CD
:100C400045FF40F23810C2F20000042101707BE73A
:100C5000D9F80000012101F039FF03206FE740F2CD
:100C60000040C4F200000021018041F21C01C4F2E6
:100C70000201086820F0020008602868012120F0C5
:100C80000F002860286840F004002860DBF80000AE
:100C900001F01CFF40F23810C2F200000221017086
:100CA00052E7D9F80000012101F010FF40F668304A
:100CB000C2F20000077047E7D9F80000012101F0F7
:100CC00005FF02203BE7D9F80000012101F0FEFEFC
:100CD000042034E741F2BC2443F6006540F20017DB
:100CE000C2F20004C0F600050126C2F2000704E0CB
:100CF000D9F800004C4601F0C5FE20684FF0FF31E6
:100D0000A14601F0CBFE40F21C144FF0000BC2F2E2
:100D1000000404E00BF1010BBBF1070FE8D055F81C
:100D20003BA005EBCB00DAF80810007906FA00F8D2
:100D300018EA010FEED1012001F022FEDAF80800D6
:100D400010EA080FE6D13868012101F0B3FEBBF1CB
:100D5000060F5AD8DFE80BF00425162008273500C7
:100D60002068A0EB500048E020684FF4FA72810838
:100D70007C2940F23001C2F200010A6034D8C0F58B
:100D8000FA702DE040F23000C2F2000000682168E5
:100D900088422CD9401A23E03868012101F096FEE0
:100DA00033E020681CE020684FF4FA6201097C29D6
:100DB00040F23001C2F200010A601AD8C0F5FA60B0
:100DC0000EE0206841F28731884240F23001C2F2E1
:100DD000000141F288320A6041F288310CD8081AC9
:100DE000012100F019F810E0A0F5FA7005E0081AEA
:100DF00003E0A0F5FA6000E0401A002100F00CF8D2
:100E000003E000BF0A2001F0BBFDDAF8080010EA99
:100E1000080FF7D07EE700BF002808BF70472DE914
:100E2000F04F81B0834642F29340C9F24920884690
:100E30008BFB000101EB0B00C11001EBD07A0BF131
:100E40000D001B2840F2FC00C2F20000006840F6D2
:100E50000C0557464FF00101C4F2010538BF0127C8
:100E600001F028FE01F000F940F23014C2F2000453
:100E700020684FF0FF3101F011FE2E6844A001F010
:100E80009BF8F0B22860206801F0FCFD00200F21E3
:100E900000F03CFFB8F1000F36D0BBF1010F6BDB67
:100EA00040F21C1940F60C040026C2F200094FF073
:100EB0000008C4F2010405E08E203E4401F060FD0C
:100EC0005E4559DAD9F80000B8443844D045C9F82D
:100ED0000000F1DB40F23018C2F20008D8F8000040
:100EE0004FF0FF3101F0DAFD44F2E8002568C0F66A
:100EF000000001F061F8E8B22060D8F8000001F0CD
:100F0000C1FD4FF00008D7E7BBF1010F34DB40F221
:100F10001C1940F60C040026C2F200094FF000082C
:100F2000C4F2010406E000BF8E203E4401F028FD1B
:100F30005E4521DAD9F80000B844C01BD045C9F895
:100F40000000F1DB40F23018C2F20008D8F80000CF
:100F50004FF0FF3101F0A2FD44F2E8002568C0F631
:100F6000000001F029F8E8B22060D8F8000001F094
:100F700089FD4FF00008D7E740F2FC00C2F2000004
:100F80000068012101B0BDE8F04F01F09FBD00BF36
:100F90004C6F61642E2E2E0084B042F2084640F25F
:100FA000810B40F21C1AC4F201064FF4F579C8F225
:100FB000080BC2F2000A07E040F2FC00C2F2000097
:100FC0000068012101F082FD01A801214FF0FF32EC
:100FD00001F03CF901F0B4FD012101F077FD092099
:100FE000F062306840F00100306000BF56F8080C35
:100FF0008007FBD5706C00FB09F181FB0B1200FB35
:101000000920C11201EBD071DAF800000A318142E7
:101010001ED9081A14284FF01408B8BF80460128BA
:10102000CADBB0FBF8F44FF4FA6090FBF8F5012C42
:101030004FF0010098BF0446DAF800002044CAF8D7
:101040000000284601F09CFCB8F10108F4D1B3E798
:101050008842B9D0401A14284FF01404B8BF04468F
:101060000128A9DBB0FBF4F74FF4FA6090FBF4F52C
:10107000012F4FF0010098BF074600BFDAF80000CB
:10108000C01BCAF80000284601F07AFC013CF5D1EB
:1010900092E700BF002808BF7047F0B581B0142860
:1010A0000546A8BF1425012818DB4FF4FA62B0FBEF
:1010B000F5F692FBF5F440F21C17012E98BF0126BD
:1010C000C2F20007002908BF764200BF38683044EA
:1010D0003860204601F054FC013DF7D140F2FC009D
:1010E000C2F200000068012101B0BDE8F04001F04B
:1010F000EDBC00BF84B040F60C0B40F2381740F254
:10110000301540F21C19C4F2010B4FF0FF0A0DF12B
:101110000408C2F20007C2F20005C2F200090AE0A8
:10112000E0B2CBF80000286801F0ACFCB24640F613
:10113000B83001F025FC404601214FF0FF3201F0AC
:1011400085F801F0FDFC012101F0C0FC3E78B245BC
:10115000EDD028684FF0FF3101F0A0FCDBF8004033
:1011600000F082FF08A000F027FFD9F8000000F08F
:10117000D5FE38780138C0B20328D1D803A151F880
:10118000200000F019FFCBE7543A0000EA400008C5
:10119000F5400008004100080B41000880B581B00F
:1011A0004FF0000CCDF800C0A8B141F26F7E41F2C3
:1011B0007073002103E000BF013181420BD2CDF8F2
:1011C00000C0009A7245F7D8009A01320092009A46
:1011D0009A42F9D3F0E701B080BD00BF81B0002191
:1011E000009180B1002202E0013282420BD20091D4
:1011F000009B052BF8D800BF009B01330093009B98
:10120000062BF9D3F0E701B0704700BF70B5044674
:1012100000F068F8002818BF70BD40F22815C2F22F
:1012200000052868214600F0BDFF10B3286821465C
:1012300000F0C4FF40F60C05C4F20105296804461D
:1012400021F400402860802000F08EFA40F61866F5
:10125000C2F200063078296821F40041296000F0CC
:1012600083FA307801383070286840F40041204615
:101270001CE040F22C15C2F200052A78082A1AD385
:1012800040F6186440F60C05C2F20004C4F20105F1
:101290002078296821F40041296000F065FA20785F
:1012A00001382070286840F40041FF202960BDE823
:1012B000704000F059BA40F22810C2F200002146F6
:1012C00000F048FF2978204600F094F840F22410FE
:1012D000C2F2000001782A7808310170501C287091
:1012E00070BD00BF70B5A0F1200104465F294FF02A
:1012F000000088BF70BDDFE801F0304A4A3030306E
:101300004A4A595D30304A304A30304A4A4A4A4A9D
:10131000554A305B304A5330634A4A4A4A4A4A4A3D
:101320004A4A30304A4A4A6130304A4A4A304A4A88
:101330004A4F304A4A4A4A4A4A4A4A4A4D4A4A4A1F
:101340004A4A4A4A4A4A51674A304A5F4A4A4A4ADE
:101350004A65304A4A4A304A4B5740F6186540F6CB
:101360000C06C2F20005C4F201062878316821F4A7
:101370000041316000F0F8F92878013828703068B1
:1013800040F400403060204600F0EEF9012070BDCE
:101390007F24E2E77124E0E74D24DEE77C24DCE7EC
:1013A0003E24DAE73924D8E77E24D6E72924D4E797
:1013B0003624D2E72824D0E76224CEE75724CCE7AE
:1013C0003C24CAE76D24C8E77724C6E740F60C0141
:1013D000C4F201010A6822F400420A6000F0C4B9B4
:1013E00040F60C01C4F201010A6842F400420A60AE
:1013F00000F0BAB9A0F12102592A88BF70470FF254
:10140000120000EB820343F6A460C0F60000DFE8A0
:1014100012F05A008C018C018C018C01FC008C01B3
:101420008C018C018C018C01D2008C012C018C016F
:101430008C013801E4000201080144018C01A8007C
:101440008C018C018C01EA008C018C018C01C6009E
:101450008C01AC00960014011A0156014A018A0061
:101460008C018C01CC00620190008C018C018C01FC
:10147000C000A200F0008C019C006E016801B40065
:101480008C01D80026018C018C018C01DE007A01D0
:101490008C01AE008C01500174017E003E01780089
:1014A0007200BA00F6005C018C018C0160008C01B6
:1014B00084008C010E013201800120016C008C013E
:1014C0008C016600860143F68C70C0F6000000F0C7
:1014D00009BE43F6CC70C0F6000000F003BE44F233
:1014E0007710C0F6000000F0FDBD44F26710C0F6B2
:1014F000000000F0F7BD43F6A470C0F6000000F055
:10150000F1BD43F69C70C0F6000000F0EBBD43F661
:101510007C70C0F6000000F0E5BD44F2A000C0F60B
:10152000000000F0DFBD43F6EC60C0F6000000F004
:10153000D9BD43F60470C0F6000000F0D3BD43F6F9
:10154000BC60C0F6000000F0CDBD43F62470C0F6CC
:10155000000000F0C7BD43F61470C0F6000000F0B4
:10156000C1BD44F2E000C0F6000000F0BBBD43F690
:101570005470C0F6000000F0B5BD43F63C70C0F6F4
:10158000000000F0AFBD44F2C000C0F6000000F063
:10159000A9BD43F60C70C0F6000000F0A3BD43F6F1
:1015A000AC70C0F6000000F09DBD43F6F460C0F6DC
:1015B000000000F097BD44F26F10C0F6000000F08C
:1015C00091BD43F64470C0F6000000F08BBD44F2BC
:1015D000B800C0F6000000F085BD43F67470C0F698
:1015E000000000F07FBD44F2B000C0F6000000F043
:1015F00079BD43F61C70C0F6000000F073BD43F6E1
:10160000B470C0F6000000F06DBD43F68470C0F603
:10161000000000F067BD44F24710C0F6000000F083
:1016200061BD44F2C800C0F6000000F05BBD44F2AA
:10163000D000C0F6000000F055BD43F6C460C0F60F
:10164000000000F04FBD43F6D460C0F6000000F08B
:1016500049BD44F24F10C0F6000000F043BD43F610
:101660004C70C0F6000000F03DBD44F2A800C0F68A
:10167000000000F037BD44F2D800C0F6000000F0D2
:1016800031BD44F25710C0F6000000F02BBD43F608
:101690009470C0F6000000F025BD43F66470C0F6FB
:1016A000000000F01FBD43F6E460C0F6000000F04B
:1016B00019BD43F65C70C0F6000000F013BD43F6A0
:1016C000DC60C0F6000000F00DBD43F6BC70C0F653
:1016D000000000F007BD43F6FC60C0F6000000F01B
:1016E00001BD43F63470C0F6000000F0FBBC43F6C9
:1016F0002C70C0F6000000F0F5BC43F66C70C0F62C
:10170000000000F0EFBC44F25F10C0F6000000F0F3
:10171000E9BC44F23F10C0F6000000F0E3BC44F224
:101720007F10C0F6000000F0DDBC704770B540F6D9
:10173000186540F60C06C2F20005C4F201062978CD
:101740003268044622F400403060084600F00CF88D
:10175000287801382870306840F400412046316014
:10176000BDE87040AFF3008083B040F60C0CC4F2CB
:10177000010C4FF41662CCF808200209120242EA6A
:10178000500202F4026200F0200342EA4302C0F376
:10179000001342EA0322CCF80420DCF800200023E6
:1017A00042F48052CCF800200022009204E000BFF6
:1017B000272B03F101030AD2009200990529F7D8DB
:1017C00000990131009100990629F9D3F0E7DCF87E
:1017D0000010002221F480510023CCF80010019267
:1017E00004E000BF132B03F101030AD20192019917
:1017F0000529F7D801990131019101990629F9D3F9
:10180000F0E74FF41661CCF80810010241EAC0017C
:1018100001F4026100F0020241EA421100F001000D
:1018200041EA0020CCF80400DCF80000002240F47B
:101830008050CCF800000020029003E0272A02F13B
:1018400001020AD2029002990529F7D802990131C2
:10185000029102990629F9D3F0E7DCF8000020F4A0
:101860008050CCF8000003B0704700BF70B504464C
:101870000078002808BF70BD40F60C060025C4F2B1
:10188000010600BF3168C0B241F400413160FFF78A
:101890006BFF0135E8B2205C0028F3D170BD00BFBA
:1018A00081B00021009180B1002202E00132824229
:1018B0000BD20091009B052BF8D800BF009B013391
:1018C0000093009B062BF9D3F0E701B0704700BFEF
:1018D000B0B582B0002041F26F7141F27072002306
:1018E000019003E00E2B03F101030AD20190019C49
:1018F0008C42F7D8019C01340194019C9442F9D3A5
:10190000F0E740F60C05C4F20105286841F26F715A
:1019100020F480502860002041F270720023019072
:1019200004E000BF022B03F101030AD20190019CE5
:101930008C42F7D8019C01340194019C9442F9D364
:10194000F0E7286820F4004028603320FFF70CFF00
:10195000002041F26F7141F270720023019003E0A8
:10196000042B03F101030AD20190019C8C42F7D8A9
:10197000019C01340194019C9442F9D3F0E728685A
:1019800020F4004028603220FFF7EEFE002040F6F1
:10199000B7310022019003E08A4202F101020AD22B
:1019A0000190019B052BF7D8019B01330193019B0B
:1019B000062BF9D3F0E7286820F40040286028209F
:1019C000FFF7D2FE002041F26F7141F270720023E6
:1019D000019003E0022B03F101030AD20190019C64
:1019E0008C42F7D8019C01340194019C9442F9D3B4
:1019F000F0E7286820F4004028600E20FFF7B4FECE
:101A0000002041F26F7141F270720023019003E0F7
:101A1000022B03F101030AD20190019C8C42F7D8FA
:101A2000019C01340194019C9442F9D3F0E72868A9
:101A300020F4004028600120FFF796FE002041F2CC
:101A40006F7141F270720023019003E0022B03F1E9
:101A500001030AD20190019C8C42F7D8019C013409
:101A60000194019C9442F9D3F0E7286820F40040E7
:101A700028600620FFF778FE002041F26F7141F2E6
:101A800070720023019003E0022B03F101030AD2DC
:101A90000190019D8D42F7D8019D01350195019D71
:101AA0009542F9D3F0E702B0B0BD00BFB0B582B047
:101AB000002041F26F7141F270720023019003E047
:101AC0000E2B03F101030AD20190019C8C42F7D83E
:101AD000019C01340194019C9442F9D3F0E740F653
:101AE0000C05C4F20105286841F26F7120F48050A2
:101AF0002860002041F270720023019004E000BFD2
:101B0000022B03F101030AD20190019C8C42F7D809
:101B1000019C01340194019C9442F9D3F0E72868B8
:101B200020F4004028603320FFF71EFE002041F221
:101B30006F7141F270720023019003E0042B03F1F6
:101B400001030AD20190019C8C42F7D8019C013418
:101B50000194019C9442F9D3F0E7286820F40040F6
:101B600028603220FFF700FE002040F6B731002247
:101B7000019003E08A4202F101020AD20190019B26
:101B8000052BF7D8019B01330193019B062BF9D359
:101B9000F0E7286820F4004028602820FFF7E4FDE3
:101BA000002041F26F7141F270720023019003E056
:101BB000022B03F101030AD20190019C8C42F7D859
:101BC000019C01340194019C9442F9D3F0E7286808
:101BD00020F4004028600E20FFF7C6FD002041F2EF
:101BE0006F7141F270720023019003E0022B03F148
:101BF00001030AD20190019C8C42F7D8019C013468
:101C00000194019C9442F9D3F0E7286820F4004045
:101C100028600120FFF7A8FD002041F26F7141F21A
:101C200070720023019003E0022B03F101030AD23A
:101C30000190019C8C42F7D8019C01340194019CD5
:101C40009442F9D3F0E7286820F400402860062089
:101C5000FFF78AFD002041F26F7141F2707200239C
:101C6000019003E0022B03F101030AD20190019CD1
:101C70008C42F7D8019C01340194019C9442F9D321
:101C8000F0E740F22010C2F200001021016040F2A3
:101C90002C10C2F200000021017040F22410C2F2A8
:101CA00000004021017040F61860C2F20000CF2110
:101CB0000170286820F40041CF20296002B0BDE8FF
:101CC000B040FFF751BD00BF01280CD0002818BF5D
:101CD0007047C81701EB107020F00F00081A6FF062
:101CE0007F01484006E0C81701EB107020F00F009C
:101CF000081A403840F60C01C4F201010A68C0B26B
:101D000022F400420A60FFF72FBD00BF01280CD06B
:101D1000002818BF7047C81701EB107020F00F00A3
:101D2000081A6FF07F01484006E0C81701EB1070F9
:101D300020F00F00081A403840F61861C2F2000186
:101D400008707047F0B581B040F60C050446B0F15C
:101D5000FF3FC4F2010507DC2868644240F40040FC
:101D600028602D20FFF700FD41F25970CDF2B71029
:101D7000A4FB000149F69A16480BC1F69916A0FB80
:101D8000061202EB8201A0EB4100296840F030000E
:101D900041F40041C0B22960FFF7E6FC44F6D3509D
:101DA000C1F26200A4FB00018809A0FB061202EB4D
:101DB0008201A0EB4100296840F0300041F400416D
:101DC000C0B22960FFF7D0FC48F21F50C5F2EB10FB
:101DD000A4FB00014809A0FB061202EB8201A0EB64
:101DE0004100296840F0300041F40041C0B2296050
:101DF000FFF7BAFC4CF6CD40CCF6CC40A4FB00017A
:101E0000CF08A7FB060101EB8100A7EB4000296882
:101E100040F0300041F40041C0B22960FFF7A4FC5B
:101E200007EB87002968A4EB400040F0300041F444
:101E30000041C0B2296001B0BDE8F040FFF794BC9A
:101E40002DE9F04381B046F26768C6F2666806463F
:101E500080FB080340F60C079810C4F2010700EB62
:101E6000D37438680D4604F1300140F40040386006
:101E7000C8B29146FFF778FC04EB8400A6EB400063
:101E80003968303041F40041C0B23960FFF76CFC72
:101E9000386840F4004038603A20FFF765FC85FB65
:101EA0000801881000EBD174386804F1300140F467
:101EB00000403860C8B2FFF757FC04EB8400A5EB84
:101EC00040003968303041F40041C0B23960FFF75A
:101ED0004BFC386840F4004038603A20FFF744FC7F
:101EE00089FB0801881000EBD174386804F13001D7
:101EF00040F400403860C8B2FFF736FC04EB8400C1
:101F00003968A9EB4000303041F40041C0B239607B
:101F100001B0BDE8F043FFF727BC00BF70B5044631
:101F2000B0F1FF3F03DC2D206442FFF76FF944F668
:101F3000D350C1F26200A4FB000149F69A1588094A
:101F4000C1F69915A0FB051202EB8201A0EB41003E
:101F500040F03000C0B2FFF759F948F21F50C5F207
:101F6000EB10A4FB00014809A0FB051202EB820163
:101F7000A0EB410040F03000C0B2FFF747F94CF64B
:101F8000CD40CCF6CC40A4FB0001CE08A6FB050159
:101F900001EB8100A6EB400040F03000C0B2FFF73B
:101FA00035F906EB8600A4EB400040F03000C0B2EB
:101FB000BDE87040FFF72AB90178002908BF7047D3
:101FC00010B5441EC8B2FFF721F9A17801340029E9
:101FD000F8D1BDE8104070472DE9F04146F267683E
:101FE000C6F26668064680FB0803981000EBD377BC
:101FF00007F13000C0B214460D46FFF707F907EBB2
:102000008700A6EB40003030C0B2FFF7FFF83A205F
:10201000FFF7FCF885FB0801881000EBD17606F18C
:102020003000C0B2FFF7F2F806EB8600A5EB4000E7
:102030003030C0B2FFF7EAF83A20FFF7E7F884FB48
:102040000801881000EBD17505F13000C0B2FFF730
:10205000DDF805EB8500A4EB40003030C0B2BDE8F0
:10206000F041FFF7D3B800BF70B540F61864C2F274
:102070000004CF2044F22E15207000262020C0F648
:10208000000500BFC0B2FFF7C1F8A81901364078BB
:10209000102EF7D18F20207000262020C0B2FFF72D
:1020A000B5F8A81901364078102EF7D1CF2020704E
:1020B00040F22010C2F200001021016040F22C100A
:1020C000C2F200000021017040F22411C2F20001AE
:1020D000402240F22810C2F200000A70BDE87040B1
:1020E00000F052B8F0B581B00C4640F60C0640F254
:1020F0002411C4F20106C2F20001097832680546D3
:1021000022F4004030600846FFF72EFB072700BF8F
:10211000E85D316841F400413160FFF725FB013F84
:10212000781CF5D140F61865C2F2000528783168B0
:1021300021F400413160FFF717FB2878013828703F
:10214000306840F400412046316001B0BDE8F04005
:10215000FFF70ABB70B50446082016460D4600F08E
:10216000C4F92168002205704670426049B10A78BE
:10217000AA4206D20A46496811B10B78AB42F9D39C
:10218000141D4160206070BDB0B50446006828B1E0
:10219000456800F0E5F9002D2846F9D100202060BF
:1021A000B0BD00BF002804BF0020704702788A42FB
:1021B00004BF012070474068F4E700BF002804BF57
:1021C0000020704702788A4201D04068F6E74078E4
:1021D00070470000FEE700BFFEE700BF40F20500C9
:1021E000C2F20000007828B180B501F023FCBDE800
:1021F000804000E0002040F69C6200EB4001C2F20B
:10220000000202EB411240F29C01C2F200010028E0
:1022100018BFA2F160010846704700BF40F66C325B
:10222000C2F200021168082901D300BFFEE780B5A1
:102230004B1C136040F61C62C2F2000202EB01115B
:102240000160084600F0CCFF012080BD10B50446B7
:102250000846114600F046FCC4E9000110BD00BF6D
:1022600010B504460846114600F0EAFBC4E9000137
:1022700010BD00BF10B504460846114600F0D4FB5F
:10228000C4E9000110BD00BF00F086FB44F27800F5
:10229000C0F60000002100F031FC00F08FFB00BF11
:1022A000FEE700000948804709480047FEE7FEE7CF
:1022B000FEE7FEE7FEE7FEE7FEE7FEE7FEE7FEE7F6
:1022C00004480549054A064B70470000E52200080E
:1022D000ED000008C0120020C0180020C01400202B
:1022E000C014002082B041F20400C4F2020050F891
:1022F000041C002241F0010140F8041C0168CFF6E3
:10230000FF021140016050F8041C4FF6FF72CFF637
:10231000F662114040F8041C50F8041C21F480219E
:1023200040F8041C016821F4FE0101604FF41F0114
:10233000416000210191009150F8041C41F480316A
:1023400040F8041C50F8041C01F40031009101997C
:1023500001310191009919B90199B1F5A06FF1D13D
:1023600050F8041CC1F3404100910099012936D175
:1023700042F20001C4F202010A6842F010020A604F
:102380000A6822F007020A600A6842F002020A6044
:102390000168016001680160016841F480610160C9
:1023A000016821F47C110160016841F4E8110160C9
:1023B00050F8041C41F0807140F8041C50F8041CD3
:1023C0008901FBD5016821F003010160016841F03A
:1023D00002010160016801F00C010829FAD14EF6F2
:1023E0000850CEF200004FF00061016002B070476B
:1023F00041F20400C4F20200016801F00C01082956
:1024000041F20021C0F27A010FD102680368C2F3E1
:102410008342DB0302F1020202D503689B0303D56A
:1024200040F60011C0F23D01514340F22C02C2F2CD
:1024300000021160006843F6AC61C0F30310C0F6FF
:102440000001085C116821FA00F01060704700007C
:10245000004870479C0000200844401E491E8843E5
:1024600070470821001DF7E72DE9F04117460E4699
:102470000446FFF7F6FFA042054633D9002F1CBFE4
:1024800006F1080000F080F930467468F4B1216864
:10249000A94217D305F1080291423CBF616841602F
:1024A00007D3626861194A602268521B0A60416062
:1024B0002560002F1CBF06F1080000F077F9201DF1
:1024C000BDE8F08120466468002CE0D12946304602
:1024D00000F05CF80028D7D1002F1CBF06F10800DF
:1024E00000F064F90020BDE8F08110B5044600F06A
:1024F00044F801682046BDE810400122B4E770B5F9
:1025000016460D46041F002808BF70BD002E1CBFD4
:1025100005F1080000F038F92B465868002818BF6C
:10252000A04238BF0346F8D31968CA18A24218BFA0
:102530005C6003D122681C461144196021680A19A5
:10254000824218BF606004D142686260006808443B
:102550002060002E1CBF05F1080000F027F970BDB7
:1025600010B5044600F009F801682046BDE81040A7
:102570000122C4E770477047704710B5FFF768FF46
:10258000083010BD704770477047704738B5044633
:102590000A4600206946AFF30080002808BF38BD16
:1025A00002460099204600F044F8012038BD012081
:1025B00000F061B8F8B5AFF30080054600200C4686
:1025C0000C2000BF0646A819A0420DD93246694624
:1025D0000020AFF30080070008BF00F04CF800981F
:1025E000A04218BF0546C419FFF7C7FF056007469C
:1025F000F01D20F007004619284600F00AF8B44202
:1026000008BFF8BDA21B31463868BDE8F84000F0AD
:1026100010B8002140F8041B40F8041BFFF7FEBD72
:102620000C207047801A0844401E491E88431044FD
:10263000704770B5144605468C464368002B18BF9A
:10264000634538BF1846F8D302681044604508D087
:102650006646604604220821FFF7E4FF811B84469A
:10266000641A2946CCF80040BDE8704000220CF105
:102670000400FFF744BF10B500F038F8BDE8104083
:1026800000F02FB870477546FFF7E2FEAE46050032
:102690006946534620F00700854618B020B5FFF77D
:1026A0000FFEBDE820404FF000064FF000074FF04E
:1026B00000084FF0000BAC46ACE8C009ACE8C0091C
:1026C000ACE8C009ACE8C00921F007018D467047AD
:1026D00010B50446AFF300802046BDE81040FDF77A
:1026E0006ABD002801D000F029B8704710B5012854
:1026F00005D0002103A000F027F8012010BD09A19A
:10270000F8E7000053494752544D454D3A204F7564
:1027100074206F662068656170206D656D6F7279D9
:10272000000000003A2048656170206D656D6F7291
:102730007920636F727275707465640001491820A6
:10274000ABBEFEE72600020070B505460C460A2027
:1027500000E06D1C00F011F835B128780028F8D1A0
:1027600002E0641C00F009F814B120780028F8D1C8
:10277000BDE870400A20AFF3008008B569468DF8C7
:1027800000000320ABBE08BD40F20501C2F200010B
:102790000978002908BF7047006843F2C92CC0F6C9
:1027A000000C4FF6FF7100DF7047000040F205019A
:1027B000C2F200010978002908BF7047006843F29F
:1027C000F11CC0F6000C00DF7047000000000000A4
:1027D00010B5002A06DA22F00042D21D22F00703CB
:1027E000102203E0D21C22F003030C2213B19C1828
:1027F0008C4201D9012010BD024401448360C0E92C
:102800000021C91AD018884202D810600246F9E7A0
:102810000020106010BD000008480068C0010BD502
:1028200007480068C00707D00548803800680028BE
:1028300002DA04490120087070470000FCED00E056
:10284000800E00E0280000204FF06042D36F002B84
:10285000FCD0036BD367D36F002BFCD0C07840EA69
:102860000120A2F87C0070474FF06041CA6F002A37
:10287000FCD081F87C0070470EB5802200B109B110
:1028800010460AE001780129FAD101A900F046F8C2
:10289000042801D0002000E01020DDE9011203B07F
:1028A00000BD70B50D46040003D012B92078012890
:1028B00001D0802070BD204600F08CFB28B1294655
:1028C000204600F056F8002070BD812070BD70B524
:1028D0000C4600F04BFF4FF0004108B1220C01D034
:1028E000084670BD058BC178A0B200F003F82846F9
:1028F00070BD00000A460146074810B500EB820093
:1029000050F8040C002805D000F068FDBDE8104028
:1029100000F054BD10BD0000780B002010B5044637
:102920008089002824D0608904EB80000069086059
:10293000606840B16078022805D10021204600F08F
:102940004DFD00F03BFD04F10C0000BFD0E85F1F1F
:10295000491E8AB2C0E8512F0029F7D16089401C76
:1029600080B26081E189884201D100206081042029
:1029700010BD10B500F032FDBDE8104000F01EBDE6
:10298000EFF3058109B182207047DFF808C000DF4E
:1029900070470000453A0008EFF3058008B1822037
:1029A0007047EFF31480C00703D0DFF80CC000DFDE
:1029B000704701F051B80000593A000888B0EFF3B1
:1029C000058010B1822008B07047EFF3148010F03A
:1029D0000301134806D001291BD0022911D0032975
:1029E00019D113E008A981F309880078C0070BD03A
:1029F0005FF0020080F31488BFF34F8FBFF36F8F37
:102A000009E00078C00706D10320F3E70078C0078B
:102A100001D0FF20D7E7DFF80CC000DFD3E70000CC
:102A2000D93F0008C93A000810B530B1006800F07D
:102A300007F8102800D1202010BD802010BD000014
:102A4000EFF305820AB1FFF717BFDFF808C000DF18
:102A500070470000353B0008EFF3058109B1002005
:102A60007047EFF31481C90702D10449497819B1BD
:102A7000DFF80CC000DF704701F079B804000020D7
:102A80006F3B0008EFF3058109B182207047DFF842
:102A900008C000DF704700008B3B0008EFF30582A1
:102AA0000AB182207047DFF808C000DF70470000DD
:102AB000AD3B0008EFF3058212B14FF000407047C4
:102AC000DFF804C000DF7047E73B0008EFF3058242
:102AD0000AB1FFF7FCBEDFF808C000DF7047000056
:102AE0000B3C0008EFF305830BB182207047DFF841
:102AF00008C000DF70470000313C0008EFF305829A
:102B00000AB100207047EFF31482D20702D1044AC1
:102B100052781AB1DFF80CC000DF704701F0B2B88C
:102B200004000020853C0008DFF80CC000DFDFF85F
:102B30000CC000DFFEE70000F13C00080D3D00087E
:102B4000EFF3058008B100207047DFF808C000DF10
:102B500070470000F13C0008DFF804C000DF704758
:102B6000453D0008094C4FF0FF3529462068FFF726
:102B700067FF02460846102AF7D1FFF7EDFF00284D
:102B8000F3D0024608469047EFE70000700B0020A4
:102B9000074801684FF0E020416100218161072171
:102BA00001610448016841F07F41016040177047AE
:102BB0009C40000820ED00E0704750E8001F31B154
:102BC0000B6840E80032002AF7D108467047BFF38F
:102BD0002F8FFAE710B568B161B10B3121F0030214
:102BE000016844680B1A1B1B934205D2084609680A
:102BF0000029F5D1002010BD210007D0211803685D
:102C0000C1E90032016001F1080010BD42600830E6
:102C100010BD000070B50D46002812D04FF6FF71B0
:102C2000084C884204D222680146104600F004FC99
:102C300020684570044800F037F9BDE8704000F0A6
:102C4000BFBC70BD0C0000206C0000200F4810B508
:102C50000D4942680E480B680068934204D00A6030
:102C6000CB88421E1A448A808A8880B282420AD166
:102C700000200860054800F017F90146BDE8104043
:102C8000024800F0FDBB10BD200000206C000020B9
:102C90001C00002070B5194DE86800282CD0A88AC7
:102CA000401EA882002621E0A06838B1616841601A
:102CB000606810B1A16881606660A6600F48214617
:102CC000183800F0DDFBA08AA8826078042804D1BF
:102CD0000B49E08A09880844A08201206070E068FE
:102CE000E860E06808B10561E6602661A88A00280E
:102CF00002D1EC68002CD7D170BD00008400002008
:102D00001C00002070B504000FD00D4DA1780126E5
:102D10002868827891420CD900F0CEFB2868467072
:102D20002046BDE8704000F04BBC064800F0BCF8FF
:102D3000F7E766702146BDE87040024800F0A0BB8E
:102D40000C0000206C0000200321FFF763BF00008F
:102D5000054A02EB810151F8041C002902D00A8BBC
:102D600082430A8370470000780B002010B50446A8
:102D7000008B084320836278618B062A18D0052ACD
:102D800019D1084217D001EA0002628388432083E8
:102D9000204600F0BCFB01206070628B08212046B9
:102DA00000F0B1FB2146BDE81040034800F068BBCD
:102DB00031EA0002EAD010BD6C000020024615483E
:102DC00010B500EB810050F8044C002C21D0208B72
:102DD000104320836278618B062A17D0052A18D108
:102DE000084216D001EA000262838843208320460D
:102DF00000F08DFB01206070628B0821204600F0FE
:102E000082FB2046BDE81040FFF77CBF31EA00029C
:102E1000EBD010BD780B002070B503460C480D4672
:102E20000468208B42B133EA000101D0062109E099
:102E300098432083022070BD10EA030101D0618312
:102E4000F6E7052163832846FFF7E4FE012070BD05
:102E50000C000020814202D342688A4201D801203E
:102E6000704702680A60BFF35F8F50E8003F0A684E
:102E70009A42F6D140E80012002AF2D100207047B1
:102E800068B161B10022083902E00246006830B141
:102E90008842FAD12AB100681060002070470120F2
:102EA000704700214160F8E70146406842684A6087
:102EB0000B780022022B05D0012B03D0032B01D06D
:102EC0004260704743680BB199604260826070470E
:102ED000810700D00020704770B5044600201546D9
:102EE000207001226270A17084F824106060A060DC
:102EF000E06020612062A082E0822083608384F809
:102F00002500E08C18B90548FFF757FEE062294616
:102F10002046BDE8704000F01DB8000040010020D0
:102F200008B1082901D2012070470144091F00227D
:102F300001600A60426010467047000003480021AB
:102F4000016003490988C18070470000200000200B
:102F5000EC3F000870B5C28C1C4D930802D12A8842
:102F6000C2F38D03C26A02EB8302540700D5121F1D
:102F70004FF0807442E9021400242646B2F1400268
:102F800042F82460641C0E2CFAD3C4691462826275
:102F900001632968C90014D5112B12D94FF0FF31F4
:102FA000103B11EB53014FF0CC3305D042F8043CF9
:102FB00042F8083D491EF9D1C16A121F8A4200D960
:102FC0001360C06A0249016070BD0000F43F000850
:102FD000A52E5AE2C1898089081A70470122027021
:102FE00000224270827042600281428110398281E7
:102FF0008908C181704700002DE9F041044640680E
:103000000E464FF0000804F10C05E8B36078012784
:1030100001283ED0022813D003285CD10846FFF7D0
:10302000CCFD050057D02046FFF73EFF0446294659
:1030300000F066FA6770204600F069FA214621E048
:103040002046FFF731FF0646002100F059FA21899A
:10305000F06904EB81010861D5E85F0F401C81B283
:10306000C5E8501F0028F7D12089401C80B220817C
:10307000E189884201D1A4F808807770304600F0D9
:1030800046FA3146174800E00CE0BDE8F04100F098
:10309000F7B92046FFF708FF04463246102100F03A
:1030A00032FAC7E7A089E189884216D2208904EB69
:1030B00080000661D5E85F0F401C81B2C5E8501F53
:1030C0000028F7D12089401C80B22081E189884204
:1030D00001D1A4F80880BDE8F081BDE8F0410320EB
:1030E000FFF77AB86C00002070B504468089154659
:1030F0000026C0B3608904EB800000690860608925
:10310000401C80B26081E189884200D1668160689C
:1031100010B1607802280BD014F10C04D4E85F0FD2
:10312000401E81B2C4E8501F0028F7D1002070BDB6
:103130002046FFF7B9FE0546002100F0E1F921899C
:10314000E86904EB810108612089401C80B220817C
:10315000E189884200D12681284600F0D8F9284626
:10316000FFF7D0FDE2E7FFE73DB10B486268016879
:103170002AB1204600F084F908E0012070BD6160AA
:1031800001684E6000688460012060700821284654
:10319000FFF740FDF1E700000C000020002814D0EC
:1031A000411C13D00C4A4FF6FE7190420CD800EB34
:1031B0004002C2EBC0120948036803EBC202521E70
:1031C000B2FBF3F0884204D9084670474FF6FF700F
:1031D000704780B27047000000093D00D43F0008EE
:1031E000032101700021418041608160C16070470E
:1031F0002DE9F0410446408820B1314DA1682A688C
:10320000914202D0FF20BDE8F081401E0004000C76
:10321000608053D12968086AA04209D1E068086239
:1032200008E0C268A24202D1E268C26002E0104631
:103230000028F6D191F824000A6A06E053681BB111
:103240009B78834200D91846D268002AF6D188704C
:10325000DFF870806168012611B32046FFF724FE75
:103260000746002100F04CF9384600F050F966801E
:10327000A760386AE0603C622968D8F804008A7860
:103280008078824201D3384616E00E4800F0F8F804
:1032900039460C4800F0F4F8286846707E700AE061
:1032A000D8F804108A782968824207D9054800F0C6
:1032B000E7F8286846700020FFF724FD0020A2E709
:1032C0000C0000206C00002070B51C4D0E4604461A
:1032D0004188286861B1A268824210D1A1F57F407F
:1032E000FF3803D0491C6180002070BDFF2070BDF5
:1032F000A060016AE160046201206080F4E776B1B9
:1033000091788078814203D29070A06800F0DEF856
:10331000606830B12046296800F0B2F808E001206A
:1033200070BD286860602968002048602868846053
:1033300009213046FFF76EFCF1E700000C00002089
:1033400070B51B48012102685170006800F0B4F8A4
:10335000184D6C7818E000BF05EBC401486802788E
:10336000EAB1012A20D000F0FFF8E878641C84421A
:1033700000D100240F48801CD0E84F1F491EC9B25D
:10338000C0E8421F002AF7D1A8780028E4D16C7069
:103390000948FFF789FDBDE8704000F011B90989BF
:1033A00089B2FFF7E3FCE0E78968FFF725FEDCE779
:1033B0000C000020A40B00206C00002005480178C0
:1033C00011B101214170704703494FF080500860EE
:1033D000704700001400002004ED00E0F0B4154D2B
:1033E000AB1CEE784FEA0507D3E84F2FB24202D16B
:1033F000BFF32F8F11E0521CD4B2C3E8424F002A12
:10340000F2D100BFD7E84F2F541CB44200D10024A2
:10341000E4B2C7E8434F002BF4D1EB78934205D9CF
:1034200005EBC202C2E90101F0BC7047F0BC02200A
:10343000FEF7D2BEA40B0020104A10B5D368ABB182
:1034400013469B8A03E08CB12246A48A2344D468A5
:103450008B42F8D3C460D0600261C46804B12061BB
:10346000591A8182908A401A908210BD0024C4604B
:10347000D060C91A02619182848210BD840000204C
:1034800030B502780023022A03D0012A01D0032A92
:1034900000D101238C7800E01046426812B1957883
:1034A000A542F9D24A6041601BB102B191608860C7
:1034B00030BD0020FBE7000003494A68426000225B
:1034C00082604860704700006C00002010B583687F
:1034D00004462BB9607801280ED1084B03E09B68A5
:1034E00018780028FBD0204600F026F82146BDE8D9
:1034F00010401846FFF7C4BF10BD00006C0000204C
:10350000806A01627047806AC0E90812704710B58E
:10351000016900290ED0C268CA60C36800223BB1AD
:103520008B8A848A23448B82C3681961C26000E05D
:103530008A82026110BD0000816839B142684A6028
:103540004168002901D0806888607047054906E01D
:103550004A68824202D1406848607047114600299B
:10356000F6D170476C00002010B5416881B1FFF7BB
:103570009BFC0446FFF7CBFF01206070014620460C
:10358000FFF7BEFF2146BDE810400348FFF778BFB4
:103590004188491C418010BD6C000020064800682D
:1035A000D0E90A10814203D300680449884202D05E
:1035B0000120FEF711BE70470C000020A52E5AE234
:1035C0000749022248604270064A1278002A05D054
:1035D00006C98A4202D0C078FFF746B9704700009A
:1035E0000C0000202800002070B5FFF715F900201E
:1035F0000446204A204902E042F82040401C0B8843
:103600009842F9D31D48342201881D48FFF7E0F89D
:103610001C48008880B240F000421B4801681B48EB
:10362000FFF7D6F81A48082201881A480068FFF701
:10363000CFF8194DFF20194AE870EC840021284684
:10364000FFF74AFC164804210170446015480170D8
:10365000C4600461848214481549056002206870C2
:103660001248047044700978C170BDE87040FFF7DB
:1036700065BC0000780B0020DA3F0008C83F000856
:1036800020090020F43F0008C43F0008400100204A
:10369000CA3F00083401002038000020D52100086E
:1036A0006C000020840000200C000020A40B0020EF
:1036B000D83F00081B4810B5016841F47F01016044
:1036C00000684FF07F4101EA00201649C0431439D9
:1036D000B0FA80F00968C0F10800C1F3022181420C
:1036E00000D3481C0F49091F0B686FF0807282409D
:1036F00063F317020A60FFF74BFA0B4900280860D2
:103700000EDB00F1E021FF2281F8002400F01F020F
:10371000012191404009800000F1E020C0F8001133
:1037200010BD000020ED00E0180000200C4810B58E
:103730000268012151700068FFF7BEFEFFF786FAAC
:1037400008480168491C0160FFF7A4FA00F006FB75
:103750000548FFF7A9FBBDE81040FFF731BF0000A7
:103760000C0000201C0000206C000020002805D068
:10377000810702D10178002900D0002070470000A5
:1037800030B50B4C0023626805E095688D4204D883
:1037900013461268491B002AF7D10260816012B1FA
:1037A0009568691A91600BB1186030BD606030BDDA
:1037B000040000202DE9F0411E46174680460D46C4
:1037C00011F0FF0F00D14D1C1848FFF7F6F9041E49
:1037D00016D0280AE762E084E9B242462046E66154
:1037E000FFF77AFB01251248124905E000EB85023C
:1037F00052F8042C32B16D1C0A889542F6D900208B
:10380000BDE8F081002DFAD000EB850040F8044CB3
:103810000948E570007818B101212046FFF714F837
:103820002046FFF76FFA2846EAE70000200900204B
:10383000780B0020DA3F0008280000202DE9F05F17
:10384000584DDFF85891DFF8588129684FF0010A88
:10385000002618B1CA78AB46824243D14E70FCF7BD
:10386000B4FC29688862FFF799FE2868046A1FE0A3
:103870006068C0B12046FFF717FB07460021FFF73D
:103880003FFE3846FFF743FE87F801A03946464819
:10389000FFF7F6FDE168A4F802A0A760386AE060CF
:1038A0003C620C4604E0E0686680A660E660044680
:1038B000002CDDD12868C27808EB820141F8046C45
:1038C000C16A3A48FFF7C6FA2868C66299F800103C
:1038D00011B10021FEF7B8FF35482968FFF7BAFAA1
:1038E0002E6056E03349098888420CD808EB8008DE
:1038F00058F8045C3DB12846FFF71EFE2846FFF746
:1039000006FE2C6A22E0FF20BDE8F09F6068C0B18F
:103910002046FFF7C9FA07460021FFF7F1FD3846B8
:10392000FFF7F5FD87F801A039461F48FFF7A8FD0E
:10393000E168A4F802A0A760386AE0603C620C4627
:1039400004E0E0686680A660E6600446002CDDD1F5
:1039500048F8046C1548E96AFFF77CFAEE6299F8BA
:10396000000018B100212846FEF76EFF29461048D6
:10397000FFF770FA0C48DBF8001040688B7882780B
:103980009A4209D981F801A00748DBF80010FFF737
:1039900077FD0020FFF7B6F90020B5E728000020EA
:1039A000780B00200C0000206C000020400100205B
:1039B00020090020DA3F000870B51A4D80B11A4A7C
:1039C000128890421FD8194A02EB800050F8044C2C
:1039D000CCB1A17084F824102868A04205D014E06E
:1039E00028688170286880F8241011484068807821
:1039F000884215D90E482968FFF742FD2968012041
:103A0000487000200AE0FF2070BD2046FFF75EFDF1
:103A10006078012804D10648FFF746FAFFF772F9EB
:103A2000002070BD0C000020DA3F0008780B002059
:103A30006C00002002480068002800D0C078704761
:103A40000C00002010B5002804D0FFF7A7FBFFF7FB
:103A50007BF9402010BD000010B5134C207860B9F0
:103A60001248400705D1124801681048FFF758FA7C
:103A700008B1852010BDFFF7B7FD0E49FF2009688A
:103A80008870207858B900210B4800F041F80B49A4
:103A9000086000210A4800F0F5F80A490860012092
:103AA00020700020607010BD04000020680C002011
:103AB000F03F00080C000020DC3F0008700B0020E5
:103AC00088400008740B002070B50F4D687808B16D
:103AD000002070BD0D4C206890F824100020FFF7E6
:103AE0006BFF2068C178FF2903D1816A203181F3FF
:103AF0000988616811B9606000202060FFF7DAFD75
:103B000001206870E4E70000040000200C000020A1
:103B100010B5040005D0216819B1606808B10278B9
:103B20000AB1002010BD8900103189B2FFF756FAA2
:103B3000606810BD3EB504000D464FF0800012D005
:103B4000217801290FD12846FFF728FB024620469D
:103B500001A9FFF7C9FA012801D0102003E00DB137
:103B6000402000E00020DDE9011203B030BD10B5B7
:103B7000002804D004680CB1207808B1002010BDE2
:103B80002046FFF72DFB204610BD10B5FFF7A0F92A
:103B900010B10178032901D0802010BDFFF728FB68
:103BA000FF2801D0002010BD812010BD70B50D464A
:103BB000FFF78EF9040002D02078032801D080207E
:103BC00070BD2846FFF7EAFA01462046FFF77CFB66
:103BD000012803D0FF2804D0002070BD0DB1C12002
:103BE00070BD812070BD70B50C46FFF7BFFD4FF072
:103BF000004108B1220C01D0084670BD058BC17888
:103C0000A0B2FFF7A5F8284670BD70B50C46FFF7C7
:103C1000ADFD4FF0004108B1220C01D0084670BD47
:103C2000058BC178A0B2FFF7C9F8284670BD000027
:103C300070B504460D46000C01D086201EE00846F3
:103C40002CB1FFF7ABFA0146A0B2012205E0FFF765
:103C5000A5FA014600224FF6FF70FFF7DDF80228B3
:103C600002D04DB1402008E008200CB1214605E00B
:103C700003490968498B01E000200021324670BDEC
:103C80000C00002070B50E46040029D0206838B31F
:103C9000606810F1030F23DB032821DCE16829B100
:103CA0001048FEF797FF05001AD000E00025606875
:103CB000E168001D40EA012133462A462068FFF7EB
:103CC00079FD40B1084901EB8000084950F8040C27
:103CD000826A516370BD1DB129460248FFF7D0F8D2
:103CE000002070BD680C0020780B0020292B0008F4
:103CF00010B5FFF79FFE002804D0034901EB8000B8
:103D000050F8040C10BD0000780B002010B5FFF730
:103D10002DFD18B1C18C19B1C46A02E0802010BD1C
:103D20000024C078FFF78AFDFF2806D01CB1214689
:103D30000348FFF7A5F8002010BD812010BD00004A
:103D4000680C002010B5FFF7C3F820B141690A687C
:103D50000169104610BD0020014610BD2DE9F0415B
:103D6000134E7468002C1CD0A068124F401E4FF0F8
:103D70000108A06012E025462468746000222946EC
:103D80003868FEF78EFD10B10420FEF725FA687939
:103D9000012808D085F80480002C02D0A0680028F3
:103DA000E9D0BDE8F0812846E968FFF7E9FCF3E7D0
:103DB00004000020700B0020000C014005000000F2
:103DC000000C014004000000000C01400300000052
:103DD0000008014003000000000C01400A00000040
:103DE0000008014007000000001001400F00000023
:103DF000001001400E000000001001400D00000006
:103E0000000C01400C000000000C01400D000000FF
:103E1000000C01400E000000000C01400F000000EB
:103E2000000C014008000000000C014009000000E7
:103E3000000C01400B00000000000100030007001F
:103E40000780078147816781678949005C006E00B0
:103E50009300B900DC0026017201B80162007B000A
:103E60009300C400F70026018801EE014B026E00AA
:103E70008B00A500DC0015014A01B8012A0293025B
:103E80009200B900DC0026017201B8014C02E40284
:103E90007003C400F70026018801EE014C021003F4
:103EA000DC03960400040A111F1111110000000028
:103EB000000000000102030406070809000F1111A9
:103EC0000F11110F000E11010101110E020001006E
:103ED00052000400000F11111111110F001F0101F8
:103EE0000F01011F001F01010F010101000E11014F
:103EF0001D11110E001010101011110E00110905E6
:103F000003050911000101010101011F000F111139
:103F10000F010101000E111111151916000F1111D9
:103F20000F050911001F04040404040400111111F9
:103F30001111110E001111110A0A0A0400111115B4
:103F4000151B11110011110A04040404001F1108AB
:103F50000402111F0000000E100E111E0000000EC2
:103F60000101110E001F010F1010110E001010168C
:103F70001911111E000E11100804021F0000000E7E
:103F8000111F010E00060905021509160404040498
:103F90000400000400000C120207020200000E11CF
:103FA000111E100E0101010D13111111000E11103F
:103FB00008040004001000181010110E000101097F
:103FC00005030509E0070000480200000000010D9C
:103FD00013111111E803000010010B000400000090
:103FE000280C0020480C0020580C0020050001007F
:103FF000B0010000C8000201F51000080000000038
:104000000100000000000000990F000800000000FF
:104010000100000000000000E50A000800000000A8
:104020000100000000000000D50C000800000000A6
:104030000100000000000000A107000800000000CF
:1040400001000000000000008108000800000000DE
:104050000100000000000000190900080000000035
:104060000100000000000000A50900080000000099
:104070000100000000000000F50200080000000040
:1040800001000000C8000000652B000802000000CD
:1040900001000000C8000000000000003F190100FE
:1040A0000000000F110F01010000000000000606D3
:1040B000000006060006040200040A1100000000C9
:1040C000000400060404040E00080C0A091F080876
:1040D0000000000D130101010000000E010E100F81
:1040E000001F1008040202022F006D7320204D6F84
:1040F00064653A31006D7320204D6F64653A32007B
:104100006D7320204D6F64653A33006D7320204D30
:104110006F64653A340047424E206D6F643A206FF9
:104120006B00636C73206D6F643A206F6B0020200E
:1041300020202020202020202020202020200000BF
:104140000202070202120C001F08040810110E00E0
:1041500000001111111916000604040404040E00D5
:104160000000000000001F0000001111110A0400EF
:104170000000000006040200000011111E100E00D5
:1041800000001F0804021F00A841000800000020D2
:104190003800000050010008E0410008380000200D
:1041A00088180000700100080100000000000000F5
:1041B00000000000000000000000000000000000FF
:1041C00000000000000000000000000000000000EF
:1041D0000000000000A24A04E80300000000000004
:04000005080000ED02
:00000001FF
